:100000000C942A000C94370A0C940A0B0C94A40B41
:100010000C9447000C9447000C9447000C94470044
:100020000C9447000C9447000C940E0F0C94E10EB6
:100030000C9447000C9447000C9447000C94470024
:100040000C9447000C9447000C9447000C94470014
:100050000C94B40611241FBECFE5D8E0DEBFCDBF9F
:1000600010E0A0E6B0E0E0E4F4E202C005900D92FA
:10007000A237B107D9F710E0A2E7B0E001C01D92A6
:10008000A038B107E1F70E943B0F0C941E120C94AC
:100090000000EF92FF920F931F937B018C0120E0F1
:1000A00030E040E05FE40E94490388238CF0C801FF
:1000B000B70120E030E040E05FE40E94C1010E940F
:1000C000A9039B01AC01205030404040504806C07D
:1000D000C801B7010E94A9039B01AC01B901CA0183
:1000E0001F910F91FF90EF900895A0E0B0E0EBE733
:1000F000F0E00C94E711DC012B01FA019C919230A5
:1001000008F439C1EB018881823008F433C194309E
:1001100069F4843009F02FC111969C91119789815F
:10012000981709F428C1A0E6B0E025C1843009F48D
:1001300021C18230A9F4923009F01DC19A01AD01AC
:1001400088E0EA010990AE01E90109929E0181501F
:10015000C1F7E201898111969C918923818308C1AD
:10016000923009F407C112962D903C901397EB0141
:100170008A819B811496AD90BD90CD90DC901797AD
:10018000EC80FD800E811F819101281B390BB90184
:1001900037FF04C066277727621B730B6032710537
:1001A0000CF061C0121613066CF537014801062EDB
:1001B00004C096948794779467940A94D2F721E0C8
:1001C00030E040E050E004C0220F331F441F551FB1
:1001D0006A95D2F721503040404050402E213F21B7
:1001E00040235123211531054105510521F021E01E
:1001F00030E040E050E079018A01E628F72808293C
:1002000019293CC0232BD1F1260E371E350146019A
:10021000062E04C096948794779467940A94D2F734
:1002200021E030E040E050E004C0220F331F441FC3
:10023000551F6A95D2F721503040404050402A2146
:100240003B214C215D21211531054105510521F04E
:1002500021E030E040E050E059016A01A628B728CB
:10026000C828D9280BC0821593052CF01C01AA249C
:10027000BB24650103C0EE24FF24870111969C91E5
:10028000D20111968C91981709F445C0992339F041
:10029000A80197012A193B094C095D0906C0A6016E
:1002A00095012E193F09400B510B57FD08C01182D3
:1002B0003382228224833583468357831DC081E0A5
:1002C00081833382228288279927DC01821B930B4A
:1002D000A40BB50B84839583A683B7830DC0220F2F
:1002E000331F441F551F24833583468357838281E0
:1002F000938101979383828324813581468157813D
:10030000DA01C9010197A109B1098F5F9F4FAF4F72
:10031000BF4328F30BC0918333822282EA0CFB1C7B
:100320000C1D1D1DE482F5820683178383E0808304
:10033000248135814681578157FF1AC0C901AA27F8
:1003400097FDA095BA2F81709070A070B0705695EF
:10035000479537952795822B932BA42BB52B848318
:100360009583A683B7838281938101969383828349
:10037000DF0101C0D201CD01CDB7DEB7E2E10C94BF
:100380000312A0E2B0E0E7ECF1E00C94F311698312
:100390007A838B839C832D833E834F835887E9E048
:1003A000EE2EF12CEC0EFD1ECE010196B7010E943F
:1003B000D2048E010F5E1F4FCE010596B8010E9438
:1003C000D2048A8991E089278A8BC701B801AE01DE
:1003D000475E5F4F0E9475000E94FD03A096E6E015
:1003E0000C940F12A0E2B0E0E8EFF1E00C94F311EE
:1003F00069837A838B839C832D833E834F835887C5
:10040000F9E0EF2EF12CEC0EFD1ECE010196B701A6
:100410000E94D2048E010F5E1F4FCE010596B801D7
:100420000E94D204C701B801AE01475E5F4F0E942F
:1004300075000E94FD03A096E6E00C940F12A0E266
:10044000B0E0E5E2F2E00C94E71169837A838B83F4
:100450009C832D833E834F835887CE010196BE0136
:10046000675F7F4F0E94D204CE010596BE016F5E8A
:100470007F4F0E94D2049985923088F0898982301A
:10048000C8F0943019F4823051F404C0843029F457
:10049000923081F480E690E0C6C0923049F420E0CA
:1004A0009A858A89981321E02A87CE010996BBC0D4
:1004B000823049F420E09A858A89981321E02A8BBA
:1004C000CE014196B0C02D843E844F8458886D88FB
:1004D0007E888F88988CEE24FF248701AA24BB2471
:1004E000650140E050E060E070E0E0E0F0E0C10174
:1004F00081709070892BE9F0E60CF71C081D191D1E
:100500009A01AB012A0D3B1D4C1D5D1D80E090E062
:10051000A0E0B0E0E614F7040805190520F481E036
:1005200090E0A0E0B0E0BA01A901480F591F6A1F8E
:100530007B1FAA0CBB1CCC1CDD1C97FE08C081E0F5
:1005400090E0A0E0B0E0A82AB92ACA2ADB2A3196B6
:10055000E032F10549F0660C771C881C991C569412
:10056000479437942794C3CFFA85EA892B893C892D
:100570008B859C85280F391F2E5F3F4F17C0CA01FE
:1005800081709070892B61F016950795F794E79428
:1005900080E090E0A0E0B0E8E82AF92A0A2B1B2BC3
:1005A00076956795579547952F5F3F4F77FDE7CF36
:1005B0000CC0440F551F661F771F17FD4160EE0CDE
:1005C000FF1C001F111F21503040403090E05907A0
:1005D00090E0690790E4790760F32B8F3C8FDB0193
:1005E000CA018F779070A070B07080349105A1051A
:1005F000B10561F447FD0AC0E114F10401051105DC
:1006000029F0405C5F4F6F4F7F4F40781A8EFE1786
:1006100011F081E08A8F4D8F5E8F6F8F78A383E01A
:10062000898FCE0149960E94FD03A096E2E10C94C9
:100630000312A8E1B0E0EFE1F3E00C94F311698359
:100640007A838B839C832D833E834F83588789E0F5
:10065000E82EF12CEC0EFD1ECE010196B7010E9492
:10066000D2048E010F5E1F4FCE010596B8010E9485
:10067000D2048985823040F08989823028F0C70110
:10068000B8010E944A0501C08FEF6896E6E00C941D
:100690000F12A8E1B0E0EFE4F3E00C94F3116983EA
:1006A0007A838B839C832D833E834F83588789E095
:1006B000E82EF12CEC0EFD1ECE010196B7010E9432
:1006C000D2048E010F5E1F4FCE010596B8010E9425
:1006D000D2048985823040F08989823028F0C701B0
:1006E000B8010E944A0501C08FEF6896E6E00C94BD
:1006F0000F12A8E1B0E0EFE7F3E00C94F311698387
:100700007A838B839C832D833E834F83588789E034
:10071000E82EF12CEC0EFD1ECE010196B7010E94D1
:10072000D2048E010F5E1F4FCE010596B8010E94C4
:10073000D2048985823040F08989823028F0C7014F
:10074000B8010E944A0501C081E06896E6E00C9479
:100750000F12ACE0B0E0EFEAF3E00C94F71169831C
:100760007A838B839C83CE010196BE016B5F7F4FA2
:100770000E94D2048D81823061F1823050F1843048
:1007800021F48E81882351F12EC02F81388537FDC9
:1007900020C06E812F3131051CF06623F9F023C093
:1007A0008EE190E0821B930B29853A854B855C8511
:1007B00004C056954795379527958A95D2F76623B5
:1007C000B1F050954095309521953F4F4F4F5F4F79
:1007D0000EC020E030E040E050E009C02FEF3FEFD6
:1007E0004FEF5FE704C020E030E040E050E8B9019F
:1007F000CA012C96E2E00C941312DF92EF92FF9262
:100800000F931F93FC01E480F58006811781D1804E
:100810008081823048F480E090E0A0E1B0E0E82AF6
:10082000F92A0A2B1B2BA5C0843009F49FC0823003
:1008300021F4EE24FF24870105C0E114F104010531
:10084000110519F4E0E0F0E096C0628173819FEF3A
:10085000623879070CF05BC022E83FEF261B370BAC
:100860002A3131052CF020E030E040E050E02AC091
:10087000B801A701022E04C0769567955795479554
:100880000A94D2F781E090E0A0E0B0E004C0880FC5
:10089000991FAA1FBB1F2A95D2F70197A109B10979
:1008A0008E219F21A023B1230097A105B10521F03E
:1008B00081E090E0A0E0B0E09A01AB01282B392B59
:1008C0004A2B5B2BDA01C9018F779070A070B07052
:1008D00080349105A105B10539F427FF09C0205CDA
:1008E0003F4F4F4F5F4F04C0215C3F4F4F4F5F4F13
:1008F000E0E0F0E02030A0E03A07A0E04A07A0E402
:100900005A0710F0E1E0F0E079018A0127C0603871
:10091000710564F5FB01E158FF4FD801C7018F77DE
:100920009070A070B07080349105A105B10539F4C4
:10093000E7FE0DC080E490E0A0E0B0E004C08FE3EB
:1009400090E0A0E0B0E0E80EF91E0A1F1B1F17FFA1
:1009500005C016950795F794E794319687E01695AC
:100960000795F794E7948A95D1F705C0EE24FF2404
:100970008701EFEFF0E06E2F679566276795902F60
:100980009F77D794DD24D7948E2F8695492F462BB9
:10099000582F5D29B701CA011F910F91FF90EF9069
:1009A000DF900895FC01DB01408151812281622F9B
:1009B0006F7770E0221F2227221F9381892F880FD3
:1009C000822B282F30E0991F9927991F11969C930D
:1009D000119721153105A9F54115510561057105DD
:1009E00011F482E037C082E89FEF13969C938E93B8
:1009F00012979A01AB0167E0220F331F441F551F66
:100A00006A95D1F783E08C930DC0220F331F441FEA
:100A1000551F12968D919C911397019713969C9355
:100A20008E931297203080E0380780E0480780E4FA
:100A3000580758F314962D933D934D935C93179755
:100A400008952F3F310579F4411551056105710570
:100A500019F484E08C93089564FF03C081E08C93C3
:100A600012C01C9210C02F57304013963C932E9307
:100A7000129783E08C9387E0440F551F661F771F02
:100A80008A95D1F7706414964D935D936D937C9322
:100A9000179708951F93DC01FB019C91923008F495
:100AA00047C08081823008F443C0943051F41196DD
:100AB0001C91843099F58181682F70E0611B710968
:100AC0003FC0843021F0923031F48230B9F181811D
:100AD000882389F12DC011961C9111978230F1F075
:100AE00081811817D9F412962D913C911397828128
:100AF00093818217930794F028173907BCF0149656
:100B00008D919D910D90BC91A02D248135814681C0
:100B10005781281739074A075B0718F4112341F05A
:100B20000AC082179307A407B50740F4112319F0F0
:100B300061E070E005C06FEF7FEF02C060E070E041
:100B4000CB011F910895DF93CF93CDB7DEB7A6E217
:100B5000B0E0E6E2F0E080818F778C93A6E2B0E02F
:100B6000E6E2F0E080818F7B8C93A6E2B0E0E6E2E3
:100B7000F0E080818F7D8C93A6E2B0E0E6E2F0E0C9
:100B8000808180618C93A6E2B0E0E6E2F0E08081B3
:100B9000877F8C93A7E2B0E0E7E2F0E0808180629B
:100BA0008C93A7E2B0E0E7E2F0E0808180648C9370
:100BB000A7E2B0E0E7E2F0E080818F778C93A7E2D4
:100BC000B0E0E7E2F0E080818F7E8C93A7E2B0E0B6
:100BD000E7E2F0E08081877F8C93A7E2B0E0E7E274
:100BE000F0E080818B7F8C93A7E2B0E0E7E2F0E059
:100BF00080818D7F8C93A7E2B0E0E7E2F0E0808116
:100C00008E7F8C93A6E2B0E0E6E2F0E08081846023
:100C10008C93A6E2B0E0E6E2F0E0808182608C9303
:100C2000A6E2B0E0E6E2F0E080818E7F8C93CF9187
:100C3000DF910895DF93CF93CDB7DEB7A6E2B0E0A2
:100C4000E6E2F0E0808180688C93CF91DF91089597
:100C5000DF93CF9300D0CDB7DEB71A8219820E94FE
:100C60006D06E6E2F0E0808182958F70882F90E03B
:100C7000817090700097A9F3A6E2B0E0E6E2F0E0A0
:100C8000808180618C93E5E2F0E08081882F90E0A4
:100C90009A83898389819A810F900F90CF91DF91F8
:100CA0000895DF93CF93CDB7DEB7A6E2B0E0E6E2DA
:100CB000F0E080818F778C93CF91DF910895DF935F
:100CC000CF93CDB7DEB7A6E2B0E0E6E2F0E08081F8
:100CD00088608C93CF91DF910895DF93CF93CDB748
:100CE000DEB7A6E2B0E0E6E2F0E0808180648C93BB
:100CF000CF91DF910895DF93CF93CDB7DEB7A6E212
:100D0000B0E0E6E2F0E0808180628C93A0E5B0E0A4
:100D1000E0E5F0E080818F778C93A0E5B0E0E0E53E
:100D2000F0E080818F7B8C93A0E5B0E0E0E5F0E01F
:100D300080818F7D8C93CF91DF910895DF93CF9346
:100D400000D0CDB7DEB79A83898389819A810097D5
:100D500031F089819A8190937500809374000F908F
:100D60000F90CF91DF9108951F920F920FB60F92BF
:100D700011242F933F934F935F936F937F938F93A0
:100D80009F93AF93BF93EF93FF93DF93CF93CDB731
:100D9000DEB7E0917400F09175000995CF91DF9175
:100DA000FF91EF91BF91AF919F918F917F916F9143
:100DB0005F914F913F912F910F900FBE0F901F9019
:100DC0001895DF93CF93CDB7DEB7EAE3F0E08EEF6F
:100DD0008083E7E3F0E082E68083E4E3F0E08FEFF6
:100DE0008083E1E3F0E01082CF91DF910895DF93FB
:100DF000CF9300D0CDB7DEB789836A8389818830ED
:100E000060F58A818130A1F4ABE3B0E0EBE3F0E080
:100E10008081482F8981282F30E081E090E0022EE8
:100E200002C0880F991F0A94E2F7842B8C93B3C0F9
:100E3000ABE3B0E0EBE3F0E08081482F8981282F1D
:100E400030E081E090E0022E02C0880F991F0A94E2
:100E5000E2F7809584238C939EC08981883090F13D
:100E60008981803178F58981885089838A818130B0
:100E7000A1F4A8E3B0E0E8E3F0E08081482F8981A5
:100E8000282F30E081E090E0022E02C0880F991FE9
:100E90000A94E2F7842B8C937EC0A8E3B0E0E8E3E9
:100EA000F0E08081482F8981282F30E081E090E0B8
:100EB000022E02C0880F991F0A94E2F780958423BE
:100EC0008C9369C08981803190F18981883178F56E
:100ED0008981805189838A818130A1F4A5E3B0E0C2
:100EE000E5E3F0E08081482F8981282F30E081E020
:100EF00090E0022E02C0880F991F0A94E2F7842B1B
:100F00008C9349C0A5E3B0E0E5E3F0E08081482F91
:100F10008981282F30E081E090E0022E02C0880F06
:100F2000991F0A94E2F7809584238C9334C08981B9
:100F3000883188F18981803270F58981885189836F
:100F40008A818130A1F4A2E3B0E0E2E3F0E08081A5
:100F5000482F8981282F30E081E090E0022E02C0E6
:100F6000880F991F0A94E2F7842B8C9314C0A2E394
:100F7000B0E0E2E3F0E08081482F8981282F30E063
:100F800081E090E0022E02C0880F991F0A94E2F7D8
:100F9000809584238C930F900F90CF91DF910895CB
:100FA000DF93CF9300D0CDB7DEB78A838A818830B4
:100FB00090F4E9E3F0E08081282F30E08A81882FE7
:100FC00090E0A90102C0559547958A95E2F7CA01BC
:100FD0008170898350C08A818830C0F08A818031D5
:100FE000A8F48A8188508A83E6E3F0E08081282F84
:100FF00030E08A81882F90E0A90102C0559547957D
:101000008A95E2F7CA018170898335C08A8180316F
:10101000C0F08A818831A8F48A8180518A83E3E311
:10102000F0E08081282F30E08A81882F90E0A901AC
:1010300002C0559547958A95E2F7CA018170898368
:101040001AC08A818831B8F08A818032A0F48A81FE
:1010500088518A83E0E3F0E08081282F30E08A81A4
:10106000882F90E0A90102C0559547958A95E2F72F
:10107000CA018170898389810F900F90CF91DF9190
:101080000895DF93CF9300D0CDB7DEB789836A830D
:101090008981883060F58A818130A1F4AAE3B0E0CB
:1010A000EAE3F0E08081482F8981282F30E081E059
:1010B00090E0022E02C0880F991F0A94E2F7842B59
:1010C0008C93B3C0AAE3B0E0EAE3F0E08081482F5C
:1010D0008981282F30E081E090E0022E02C0880F45
:1010E000991F0A94E2F7809584238C939EC089818E
:1010F000883090F18981803178F5898188508983A1
:101100008A818130A1F4A7E3B0E0E7E3F0E08081D9
:10111000482F8981282F30E081E090E0022E02C024
:10112000880F991F0A94E2F7842B8C937EC0A7E363
:10113000B0E0E7E3F0E08081482F8981282F30E09C
:1011400081E090E0022E02C0880F991F0A94E2F716
:10115000809584238C9369C08981803190F1898145
:10116000883178F58981805189838A818130A1F421
:10117000A4E3B0E0E4E3F0E08081482F8981282FE8
:1011800030E081E090E0022E02C0880F991F0A949F
:10119000E2F7842B8C9349C0A4E3B0E0E4E3F0E0F1
:1011A0008081482F8981282F30E081E090E0022E55
:1011B00002C0880F991F0A94E2F7809584238C93CC
:1011C00034C08981883188F18981803270F58981C4
:1011D000885189838A818130A1F4A1E3B0E0E1E301
:1011E000F0E08081482F8981282F30E081E090E075
:1011F000022E02C0880F991F0A94E2F7842B8C9369
:1012000014C0A1E3B0E0E1E3F0E08081482F8981E0
:10121000282F30E081E090E0022E02C0880F991F55
:101220000A94E2F7809584238C930F900F90CF91CE
:10123000DF910895DF93CF930F92CDB7DEB7898307
:1012400089818830A0F4ABE3B0E0EBE3F0E080818B
:10125000482F8981282F30E081E090E0022E02C0E3
:10126000880F991F0A94E2F784278C9356C08981CE
:101270008830D0F089818031B8F4898188508983A1
:10128000A8E3B0E0E8E3F0E08081482F8981282FCF
:1012900030E081E090E0022E02C0880F991F0A948E
:1012A000E2F784278C9339C089818031D0F089811D
:1012B0008831B8F4898180518983A5E3B0E0E5E302
:1012C000F0E08081482F8981282F30E081E090E094
:1012D000022E02C0880F991F0A94E2F784278C938C
:1012E0001CC089818831C8F089818032B0F489813D
:1012F00088518983A2E3B0E0E2E3F0E08081482FE7
:101300008981282F30E081E090E0022E02C0880F12
:10131000991F0A94E2F784278C930F90CF91DF9165
:101320000895DF93CF93CDB7DEB7A5E5B0E0E5E54F
:10133000F0E0808181608C93A5E5B0E0E5E5F0E028
:10134000808182608C93ABE5B0E0EBE5F0E08081DA
:101350008F7B8C93AAE5B0E0EAE5F0E080818064C1
:101360008C93CF91DF910895DF93CF93CDB7DEB704
:10137000ABE5B0E0EBE5F0E0808180648C93CF9149
:10138000DF910895DF93CF93CDB7DEB7ABE5B0E043
:10139000EBE5F0E080818F7B8C93CF91DF91089516
:1013A000DF93CF930F92CDB7DEB7898389818530E4
:1013B00079F4A5E5B0E0E5E5F0E080818E7F8C93DF
:1013C000A5E5B0E0E5E5F0E080818D7F8C9335C048
:1013D0008981843079F4A5E5B0E0E5E5F0E080812D
:1013E00081608C93A5E5B0E0E5E5F0E080818D7F3C
:1013F0008C9323C08981823079F4A5E5B0E0E5E5DE
:10140000F0E080818E7F8C93A5E5B0E0E5E5F0E02B
:10141000808182608C9311C08981833071F4A5E54D
:10142000B0E0E5E5F0E0808181608C93A5E5B0E077
:10143000E5E5F0E0808182608C930F90CF91DF91A1
:101440000895DF93CF9300D0CDB7DEB79A83898319
:1014500089819A81009731F089819A8190937700F0
:10146000809376000F900F90CF91DF9108951F9297
:101470000F920FB60F9211242F933F934F935F93C8
:101480006F937F938F939F93AF93BF93EF93FF934C
:10149000DF93CF93CDB7DEB7E0917600F091770080
:1014A0000995CF91DF91FF91EF91BF91AF919F91FE
:1014B0008F917F916F915F914F913F912F910F90FD
:1014C0000FBE0F901F901895DF93CF93CDB7DEB767
:1014D000A5E5B0E0E5E5F0E0808184608C93A5E5CA
:1014E000B0E0E5E5F0E0808188608C93ABE5B0E0AA
:1014F000EBE5F0E080818F778C93AAE5B0E0EAE538
:10150000F0E0808180688C93CF91DF910895DF9324
:10151000CF93CDB7DEB7ABE5B0E0EBE5F0E080818F
:1015200080688C93CF91DF910895DF93CF93CDB7EF
:10153000DEB7ABE5B0E0EBE5F0E080818F778C9330
:10154000CF91DF910895DF93CF930F92CDB7DEB7A0
:1015500089838981853079F4A5E5B0E0E5E5F0E09F
:1015600080818B7F8C93A5E5B0E0E5E5F0E080819C
:10157000877F8C9335C08981843079F4A5E5B0E00C
:10158000E5E5F0E0808184608C93A5E5B0E0E5E5D9
:10159000F0E08081877F8C9323C08981823079F449
:1015A000A5E5B0E0E5E5F0E080818B7F8C93A5E5D3
:1015B000B0E0E5E5F0E0808188608C9311C089811E
:1015C000833071F4A5E5B0E0E5E5F0E0808184606A
:1015D0008C93A5E5B0E0E5E5F0E0808188608C9330
:1015E0000F90CF91DF910895DF93CF9300D0CDB7C7
:1015F000DEB79A83898389819A81009731F0898146
:101600009A8190937900809378000F900F90CF91FA
:10161000DF9108951F920F920FB60F9211242F930E
:101620003F934F935F936F937F938F939F93AF936A
:10163000BF93EF93FF93DF93CF93CDB7DEB7E091E6
:101640007800F09179000995CF91DF91FF91EF91AA
:10165000BF91AF919F918F917F916F915F914F91CA
:101660003F912F910F900FBE0F901F901895DF9311
:10167000CF93CDB7DEB7A4E5B0E0E4E5F0E080813C
:1016800080648C93ABE5B0E0EBE5F0E080818F7D8A
:101690008C93AAE5B0E0EAE5F0E0808180628C936B
:1016A000CF91DF910895DF93CF93CDB7DEB7ABE550
:1016B000B0E0EBE5F0E0808180628C93CF91DF9128
:1016C0000895DF93CF93CDB7DEB7ABE5B0E0EBE5A0
:1016D000F0E080818F7D8C93CF91DF910895DF932F
:1016E000CF930F92CDB7DEB789838981823041F4E1
:1016F000A5E5B0E0E5E5F0E080818F7B8C930AC042
:101700008981833039F4A5E5B0E0E5E5F0E080813A
:1017100080648C930F90CF91DF910895DF93CF93E6
:1017200000D0CDB7DEB79A83898389819A810097EB
:1017300031F089819A8190937B0080937A000F9099
:101740000F90CF91DF9108951F920F920FB60F92D5
:1017500011242F933F934F935F936F937F938F93B6
:101760009F93AF93BF93EF93FF93DF93CF93CDB747
:10177000DEB7E0917A00F0917B000995CF91DF917F
:10178000FF91EF91BF91AF919F918F917F916F9159
:101790005F914F913F912F910F900FBE0F901F902F
:1017A0001895DF93CF93CDB7DEB7AFE5B0E0EFE5A7
:1017B000F0E0808180688C93CF91DF910895DF9372
:1017C000CF93CDB7DEB7AFE5B0E0EFE5F0E08081D5
:1017D0008F778C93CF91DF910895DF93CF93CDB71F
:1017E000DEB762970FB6F894DEBF0FBECDBF8C8711
:1017F0006D87AE014E5F5F4F5F874E8788E690E052
:10180000998B888B9AE09A8BE889F98900804889BE
:1018100059894F5F5F4F598B488BEE85FF8500825A
:101820004E855F854F5F5F4F5F874E875A89515066
:101830005A8B8A89882341F719828C85813009F077
:10184000F1C08D85282F30E0CE010296FC01E20F19
:10185000F31F8081282F30E08981882F90E0F901E3
:1018600002C0F595E7958A95E2F7CF01982F917020
:1018700089818F5F898388E0692F0E94F7068D85B3
:10188000282F30E0CE010296FC01E20FF31F808189
:10189000282F30E08981882F90E0A90102C055955A
:1018A00047958A95E2F7CA01982F917089818F5FD9
:1018B000898389E0692F0E94F7068D85282F30E003
:1018C000CE010296FC01E20FF31F8081282F30E049
:1018D0008981882F90E0F90102C0F595E7958A95F6
:1018E000E2F7CF01982F917089818F5F89838AE019
:1018F000692F0E94F7068D85282F30E0CE010296D1
:10190000FC01E20FF31F8081282F30E08981882FAE
:1019100090E0A90102C0559547958A95E2F7CA0162
:10192000982F917089818F5F89838BE0692F0E9446
:10193000F7068D85282F30E0CE010296FC01E20FDC
:10194000F31F8081282F30E08981882F90E0F901F2
:1019500002C0F595E7958A95E2F7CF01982F91702F
:1019600089818F5F89838CE0692F0E94F7068D85BE
:10197000282F30E0CE010296FC01E20FF31F808198
:10198000282F30E08981882F90E0A90102C0559569
:1019900047958A95E2F7CA01982F917089818F5FE8
:1019A00089838DE0692F0E94F7068D85282F30E00E
:1019B000CE010296FC01E20FF31F8081282F30E058
:1019C0008981882F90E0F90102C0F595E7958A9505
:1019D000E2F7CF01982F917089818F5F89838EE024
:1019E000692F0E94F7068D85282F30E0CE010296E0
:1019F000FC01E20FF31F8081282F30E08981882FBE
:101A000090E0A90102C0559547958A95E2F7CA0171
:101A1000982F917089818F5F89838FE0692F0E9451
:101A2000F706F4C08C85882309F0F0C08D85282F37
:101A300030E0CE010296FC01E20FF31F8081282FD7
:101A400030E08981882F90E0F90102C0F595E79593
:101A50008A95E2F7CF01982F917089818F5F8983F2
:101A600081E0692F0E94F7068D85282F30E0CE0196
:101A70000296FC01E20FF31F8081282F30E089815C
:101A8000882F90E0A90102C0559547958A95E2F705
:101A9000CA01982F917089818F5F898382E0692FB5
:101AA0000E94F7068D85282F30E0CE010296FC01BA
:101AB000E20FF31F8081282F30E08981882F90E08A
:101AC000F90102C0F595E7958A95E2F7CF01982FC5
:101AD000917089818F5F898383E0692F0E94F70667
:101AE0008D85282F30E0CE010296FC01E20FF31F16
:101AF0008081282F30E08981882F90E0A90102C0E1
:101B0000559547958A95E2F7CA01982F917089817A
:101B10008F5F898384E0692F0E94F7068D85282FC7
:101B200030E0CE010296FC01E20FF31F8081282FE6
:101B300030E08981882F90E0F90102C0F595E795A2
:101B40008A95E2F7CF01982F917089818F5F898301
:101B500085E0692F0E94F7068D85282F30E0CE01A1
:101B60000296FC01E20FF31F8081282F30E089816B
:101B7000882F90E0A90102C0559547958A95E2F714
:101B8000CA01982F917089818F5F898386E0692FC0
:101B90000E94F7068D85282F30E0CE010296FC01C9
:101BA000E20FF31F8081282F30E08981882F90E099
:101BB000F90102C0F595E7958A95E2F7CF01982FD4
:101BC000917089818F5F898387E0692F0E94F70672
:101BD0008D85282F30E0CE010296FC01E20FF31F25
:101BE0008081282F30E08981882F90E0A90102C0F0
:101BF000559547958A95E2F7CA01982F917089818A
:101C00008F5F898387E0692F0E94F70662960FB67F
:101C1000F894DEBF0FBECDBFCF91DF910895DF9363
:101C2000CF93CDB7DEB7A3E5B0E0E3E5F0E0808188
:101C30008E7F8C93A3E5B0E0E3E5F0E080818260E5
:101C40008C93A3E5B0E0E3E5F0E080818B7F8C939B
:101C5000A3E5B0E0E3E5F0E08081877F8C93A3E526
:101C6000B0E0E3E5F0E080818F7B8C93A3E5B0E00A
:101C7000E3E5F0E080818F7E8C93A3E5B0E0E3E5BF
:101C8000F0E080818F7D8C93A9E5B0E0E9E5F0E09C
:101C900080818E7F8C93A9E5B0E0E9E5F0E080815A
:101CA0008D7F8C93A8E5B0E0E8E5F0E0808181606D
:101CB0008C93A8E5B0E0E8E5F0E0808182608C9349
:101CC000E2E5F0E01082ECE5F0E01082CF91DF91E8
:101CD0000895DF93CF93CDB7DEB7A9E5B0E0E9E58E
:101CE000F0E0808181608C93CF91DF910895DF9344
:101CF000CF93CDB7DEB7A9E5B0E0E9E5F0E08081AC
:101D00008E7F8C93CF91DF910895DF93CF93CDB7E2
:101D1000DEB7A9E5B0E0E9E5F0E0808182608C9370
:101D2000CF91DF910895DF93CF93CDB7DEB7A9E5CB
:101D3000B0E0E9E5F0E080818D7F8C93CF91DF9179
:101D40000895DF93CF930F92CDB7DEB78983E2E595
:101D5000F0E0898180830F90CF91DF910895DF9328
:101D6000CF930F92CDB7DEB78983ECE5F0E08981A0
:101D700080830F90CF91DF910895DF93CF9300D0B0
:101D8000CDB7DEB79A83898389819A8190937D004C
:101D900080937C000F900F90CF91DF910895DF9397
:101DA000CF9300D0CDB7DEB79A83898389819A819A
:101DB00090937F0080937E000F900F90CF91DF91E2
:101DC00008951F920F920FB60F9211242F933F93F5
:101DD0004F935F936F937F938F939F93AF93BF9333
:101DE000EF93FF93DF93CF93CDB7DEB7E0917C0005
:101DF000F0917D000995CF91DF91FF91EF91BF9117
:101E0000AF919F918F917F916F915F914F913F9192
:101E10002F910F900FBE0F901F9018951F920F9249
:101E20000FB60F9211242F933F934F935F936F93AD
:101E30007F938F939F93AF93BF93EF93FF93DF9322
:101E4000CF93CDB7DEB7E0917E00F0917F0009958A
:101E5000CF91DF91FF91EF91BF91AF919F918F91C2
:101E60007F916F915F914F913F912F910F900FBE96
:101E70000F901F901895DF93CF9300D000D0CDB76F
:101E8000DEB70E94E1060E94A3050E941A060E9486
:101E900091090E94B40986EA9FE00E94210A0E94EB
:101EA000640A0E94870A83EC90E10E94F40A0E946F
:101EB000370B0E94530B80EE91E10E948E0B0E9423
:101EC000D10B0E940F0E8AE161E00E94F7068BE1C0
:101ED00061E00E94F7068DE061E00E94F7061A8239
:101EE000198214C00E94A60F0E94280690937300C6
:101EF0008093720080917200909173008C339105F1
:101F000051F089819A8101969A83898389819A8186
:101F10008C3091053CF30E942806909373008093C7
:101F2000720080917200909173008C838091720096
:101F300090917300892F99278B8380E06C810E9498
:101F4000ED0B80E06B810E94ED0BE5CFDF93CF932B
:101F5000CDB7DEB76E970FB6F894DEBF0FBECDBF1C
:101F600080917200909173008B34910508F002C14A
:101F70008DE061E00E94F7061E8E1D8EF1C08DE09F
:101F800061E00E94F70680E090E0AAE7B4E4898F60
:101F90009A8FAB8FBC8F698D7A8D8B8D9C8D20E055
:101FA00030E04AEF54E40E941F02DC01CB018D8B2C
:101FB0009E8BAF8BB88F6D897E898F89988D20E03D
:101FC00030E040E85FE30E94790388232CF481E04D
:101FD00090E09C8B8B8B3FC06D897E898F89988D1B
:101FE00020E03FEF4FE757E40E94190318164CF525
:101FF000698D7A8D8B8D9C8D20E030E040E251E43C
:102000000E941F02DC01CB01BC01CD010E944900EE
:10201000DC01CB019C8B8B8B0FC088EC90E09A8B02
:10202000898B89899A890197F1F79A8B898B8B899A
:102030009C8901979C8B8B8B8B899C89009769F776
:1020400014C06D897E898F89988D0E944900DC01BA
:10205000CB019C8B8B8B8B899C89988B8F878F85F1
:1020600098890197F1F7988B8F878DE060E00E9447
:10207000F70680E090E0AAE7B4E48B879C87AD8701
:10208000BE876B857C858D859E8520E030E04AEF9C
:1020900054E40E941F02DC01CB018F839887A9873B
:1020A000BA876F81788589859A8520E030E040E89D
:1020B0005FE30E94790388232CF481E090E09E8303
:1020C0008D833FC06F81788589859A8520E03FEFB9
:1020D0004FE757E40E94190318164CF56B857C8571
:1020E0008D859E8520E030E040E251E40E941F0291
:1020F000DC01CB01BC01CD010E944900DC01CB0118
:102100009E838D830FC088EC90E09C838B838B81B2
:102110009C810197F1F79C838B838D819E81019730
:102120009E838D838D819E81009769F714C06F8196
:10213000788589859A850E944900DC01CB019E83C0
:102140008D838D819E819A83898389819A8101976C
:10215000F1F79A8389838D8D9E8D01969E8F8D8F49
:102160008D8D9E8D853091050CF409CF8DE060E05A
:102170000E94F7066E960FB6F894DEBF0FBECDBF75
:10218000CF91DF910895DF93CF93CDB7DEB76E97F0
:102190000FB6F894DEBF0FBECDBF80917200909154
:1021A00073008C34910508F402C18DE061E00E9457
:1021B000F7061E8E1D8EF1C08DE061E00E94F706CD
:1021C00080E090E0AAE7B4E4898F9A8FAB8FBC8F50
:1021D000698D7A8D8B8D9C8D20E030E04AEF54E440
:1021E0000E941F02DC01CB018D8B9E8BAF8BB88FC1
:1021F0006D897E898F89988D20E030E040E85FE32B
:102200000E94790388232CF481E090E09C8B8B8BD7
:102210003FC06D897E898F89988D20E03FEF4FE721
:1022200057E40E94190318164CF5698D7A8D8B8D31
:102230009C8D20E030E040E251E40E941F02DC016E
:10224000CB01BC01CD010E944900DC01CB019C8B7C
:102250008B8B0FC088EC90E09A8B898B89899A8947
:102260000197F1F79A8B898B8B899C8901979C8BBD
:102270008B8B8B899C89009769F714C06D897E8947
:102280008F89988D0E944900DC01CB019C8B8B8B40
:102290008B899C89988B8F878F8598890197F1F717
:1022A000988B8F878DE060E00E94F70680E090E0D9
:1022B000AAE7B4E48B879C87AD87BE876B857C8556
:1022C0008D859E8520E030E04AEF54E40E941F0295
:1022D000DC01CB018F839887A987BA876F817885C6
:1022E00089859A8520E030E040E85FE30E94790329
:1022F00088232CF481E090E09E838D833FC06F8122
:10230000788589859A8520E03FEF4FE757E40E9462
:10231000190318164CF56B857C858D859E8520E00C
:1023200030E040E251E40E941F02DC01CB01BC011D
:10233000CD010E944900DC01CB019E838D830FC03B
:1023400088EC90E09C838B838B819C810197F1F7D3
:102350009C838B838D819E8101979E838D838D814C
:102360009E81009769F714C06F81788589859A8569
:102370000E944900DC01CB019E838D838D819E816B
:102380009A83898389819A810197F1F79A83898356
:102390008D8D9E8D01969E8F8D8F8D8D9E8D85301E
:1023A00091050CF409CF8DE060E00E94F7066E966F
:1023B0000FB6F894DEBF0FBECDBFCF91DF91089569
:1023C000DF93CF93CDB7DEB7CF91DF9108952F92F2
:1023D0003F924F925F926F927F928F929F92AF92B5
:1023E000BF92CF92DF92EF92FF920F931F93CF9302
:1023F000DF93CDB7DEB7CA1BDB0B0FB6F894DEBF99
:102400000FBECDBF09942A88398848885F846E84BE
:102410007D848C849B84AA84B984C884DF80EE8008
:10242000FD800C811B81AA81B981CE0FD11D0FB611
:10243000F894DEBF0FBECDBFED010895F894FFCF35
:102440000000000000000000C0F9A4B0999282F8DA
:0224500080907A
:00000001FF
